{
  "_format": "hh-sol-artifact-1",
  "contractName": "Create",
  "sourceName": "contracts/VotingContract.sol",
  "abi": [
    {
      "inputs": [],
      "stateMutability": "nonpayable",
      "type": "constructor"
    },
    {
      "anonymous": false,
      "inputs": [
        {
          "indexed": true,
          "internalType": "uint256",
          "name": "candidateId",
          "type": "uint256"
        },
        {
          "indexed": false,
          "internalType": "string",
          "name": "age",
          "type": "string"
        },
        {
          "indexed": false,
          "internalType": "string",
          "name": "name",
          "type": "string"
        },
        {
          "indexed": false,
          "internalType": "string",
          "name": "image",
          "type": "string"
        },
        {
          "indexed": false,
          "internalType": "uint256",
          "name": "votecount",
          "type": "uint256"
        },
        {
          "indexed": false,
          "internalType": "address",
          "name": "_address",
          "type": "address"
        },
        {
          "indexed": false,
          "internalType": "string",
          "name": "ipfs",
          "type": "string"
        }
      ],
      "name": "CandidateCreate",
      "type": "event"
    },
    {
      "anonymous": false,
      "inputs": [
        {
          "indexed": false,
          "internalType": "uint256",
          "name": "voter_voterId",
          "type": "uint256"
        },
        {
          "indexed": false,
          "internalType": "string",
          "name": "voter_name",
          "type": "string"
        },
        {
          "indexed": false,
          "internalType": "string",
          "name": "voter_image",
          "type": "string"
        },
        {
          "indexed": false,
          "internalType": "address",
          "name": "voter_address",
          "type": "address"
        },
        {
          "indexed": false,
          "internalType": "uint256",
          "name": "voter_allowed",
          "type": "uint256"
        },
        {
          "indexed": false,
          "internalType": "bool",
          "name": "voter_voted",
          "type": "bool"
        },
        {
          "indexed": false,
          "internalType": "uint256",
          "name": "voter_vote",
          "type": "uint256"
        },
        {
          "indexed": false,
          "internalType": "string",
          "name": "voter_ipfs",
          "type": "string"
        }
      ],
      "name": "VoterCreated",
      "type": "event"
    },
    {
      "inputs": [
        {
          "internalType": "uint256",
          "name": "",
          "type": "uint256"
        }
      ],
      "name": "candidateAddress",
      "outputs": [
        {
          "internalType": "address",
          "name": "",
          "type": "address"
        }
      ],
      "stateMutability": "view",
      "type": "function"
    },
    {
      "inputs": [
        {
          "internalType": "address",
          "name": "",
          "type": "address"
        }
      ],
      "name": "candidates",
      "outputs": [
        {
          "internalType": "uint256",
          "name": "candidateId",
          "type": "uint256"
        },
        {
          "internalType": "string",
          "name": "age",
          "type": "string"
        },
        {
          "internalType": "string",
          "name": "name",
          "type": "string"
        },
        {
          "internalType": "string",
          "name": "image",
          "type": "string"
        },
        {
          "internalType": "uint256",
          "name": "votecount",
          "type": "uint256"
        },
        {
          "internalType": "address",
          "name": "_address",
          "type": "address"
        },
        {
          "internalType": "string",
          "name": "ipfs",
          "type": "string"
        }
      ],
      "stateMutability": "view",
      "type": "function"
    },
    {
      "inputs": [
        {
          "internalType": "address",
          "name": "_address",
          "type": "address"
        }
      ],
      "name": "getCandidateData",
      "outputs": [
        {
          "internalType": "string",
          "name": "",
          "type": "string"
        },
        {
          "internalType": "string",
          "name": "",
          "type": "string"
        },
        {
          "internalType": "uint256",
          "name": "",
          "type": "uint256"
        },
        {
          "internalType": "string",
          "name": "",
          "type": "string"
        },
        {
          "internalType": "uint256",
          "name": "",
          "type": "uint256"
        },
        {
          "internalType": "string",
          "name": "",
          "type": "string"
        },
        {
          "internalType": "address",
          "name": "",
          "type": "address"
        }
      ],
      "stateMutability": "view",
      "type": "function"
    },
    {
      "inputs": [],
      "name": "getCandidatelength",
      "outputs": [
        {
          "internalType": "uint256",
          "name": "",
          "type": "uint256"
        }
      ],
      "stateMutability": "view",
      "type": "function"
    },
    {
      "inputs": [],
      "name": "getVotedVoterList",
      "outputs": [
        {
          "internalType": "address[]",
          "name": "",
          "type": "address[]"
        }
      ],
      "stateMutability": "view",
      "type": "function"
    },
    {
      "inputs": [
        {
          "internalType": "address",
          "name": "_address",
          "type": "address"
        }
      ],
      "name": "getVoterData",
      "outputs": [
        {
          "internalType": "uint256",
          "name": "",
          "type": "uint256"
        },
        {
          "internalType": "string",
          "name": "",
          "type": "string"
        },
        {
          "internalType": "string",
          "name": "",
          "type": "string"
        },
        {
          "internalType": "address",
          "name": "",
          "type": "address"
        },
        {
          "internalType": "string",
          "name": "",
          "type": "string"
        },
        {
          "internalType": "uint256",
          "name": "",
          "type": "uint256"
        },
        {
          "internalType": "bool",
          "name": "",
          "type": "bool"
        }
      ],
      "stateMutability": "view",
      "type": "function"
    },
    {
      "inputs": [],
      "name": "getVoterLength",
      "outputs": [
        {
          "internalType": "uint256",
          "name": "",
          "type": "uint256"
        }
      ],
      "stateMutability": "view",
      "type": "function"
    },
    {
      "inputs": [],
      "name": "getVoterList",
      "outputs": [
        {
          "internalType": "address[]",
          "name": "",
          "type": "address[]"
        }
      ],
      "stateMutability": "view",
      "type": "function"
    },
    {
      "inputs": [],
      "name": "getcandidate",
      "outputs": [
        {
          "internalType": "address[]",
          "name": "",
          "type": "address[]"
        }
      ],
      "stateMutability": "view",
      "type": "function"
    },
    {
      "inputs": [
        {
          "internalType": "address",
          "name": "_address",
          "type": "address"
        },
        {
          "internalType": "string",
          "name": "_age",
          "type": "string"
        },
        {
          "internalType": "string",
          "name": "_name",
          "type": "string"
        },
        {
          "internalType": "string",
          "name": "_image",
          "type": "string"
        },
        {
          "internalType": "string",
          "name": "_ipfs",
          "type": "string"
        }
      ],
      "name": "setCandidate",
      "outputs": [],
      "stateMutability": "nonpayable",
      "type": "function"
    },
    {
      "inputs": [
        {
          "internalType": "address",
          "name": "_candidateAddress",
          "type": "address"
        },
        {
          "internalType": "uint256",
          "name": "_candidateVoteId",
          "type": "uint256"
        }
      ],
      "name": "vote",
      "outputs": [],
      "stateMutability": "nonpayable",
      "type": "function"
    },
    {
      "inputs": [
        {
          "internalType": "uint256",
          "name": "",
          "type": "uint256"
        }
      ],
      "name": "votedVoters",
      "outputs": [
        {
          "internalType": "address",
          "name": "",
          "type": "address"
        }
      ],
      "stateMutability": "view",
      "type": "function"
    },
    {
      "inputs": [
        {
          "internalType": "address",
          "name": "_address",
          "type": "address"
        },
        {
          "internalType": "string",
          "name": "_name",
          "type": "string"
        },
        {
          "internalType": "string",
          "name": "_image",
          "type": "string"
        },
        {
          "internalType": "string",
          "name": "_ipfs",
          "type": "string"
        }
      ],
      "name": "voterRight",
      "outputs": [],
      "stateMutability": "nonpayable",
      "type": "function"
    },
    {
      "inputs": [
        {
          "internalType": "address",
          "name": "",
          "type": "address"
        }
      ],
      "name": "voters",
      "outputs": [
        {
          "internalType": "uint256",
          "name": "voter_voterId",
          "type": "uint256"
        },
        {
          "internalType": "string",
          "name": "voter_name",
          "type": "string"
        },
        {
          "internalType": "string",
          "name": "voter_image",
          "type": "string"
        },
        {
          "internalType": "address",
          "name": "voter_address",
          "type": "address"
        },
        {
          "internalType": "uint256",
          "name": "voter_allowed",
          "type": "uint256"
        },
        {
          "internalType": "bool",
          "name": "voter_voted",
          "type": "bool"
        },
        {
          "internalType": "uint256",
          "name": "voter_vote",
          "type": "uint256"
        },
        {
          "internalType": "string",
          "name": "voter_ipfs",
          "type": "string"
        }
      ],
      "stateMutability": "view",
      "type": "function"
    },
    {
      "inputs": [
        {
          "internalType": "uint256",
          "name": "",
          "type": "uint256"
        }
      ],
      "name": "votersAddress",
      "outputs": [
        {
          "internalType": "address",
          "name": "",
          "type": "address"
        }
      ],
      "stateMutability": "view",
      "type": "function"
    },
    {
      "inputs": [],
      "name": "votingOrganizer",
      "outputs": [
        {
          "internalType": "address",
          "name": "",
          "type": "address"
        }
      ],
      "stateMutability": "view",
      "type": "function"
    }
  ],
  "bytecode": "0x608060405260008055600060015534801561001957600080fd5b5033600260006101000a81548173ffffffffffffffffffffffffffffffffffffffff021916908373ffffffffffffffffffffffffffffffffffffffff160217905550612c3d8061006a6000396000f3fe608060405234801561001057600080fd5b50600436106101005760003560e01c80638ab66a9011610097578063a3ec138d11610066578063a3ec138d14610b54578063a729a7f514610d24578063b28d92ae14610d83578063c91ec71214610de257610100565b80638ab66a90146106e25780638e9456851461090e5780638fb4cd801461096d578063a3c95f9514610b3657610100565b806343242daa116100d357806343242daa146105b05780635cc48aa7146106085780635f74bbde1461063c5780637831ffb31461068a57610100565b80630361419e1461010557806305ad45a41461030e5780632a466ac71461032c5780633a88251a14610558575b600080fd5b61030c6004803603608081101561011b57600080fd5b81019080803573ffffffffffffffffffffffffffffffffffffffff1690602001909291908035906020019064010000000081111561015857600080fd5b82018360208201111561016a57600080fd5b8035906020019184600183028401116401000000008311171561018c57600080fd5b91908080601f016020809104026020016040519081016040528093929190818152602001838380828437600081840152601f19601f820116905080830192505050505050509192919290803590602001906401000000008111156101ef57600080fd5b82018360208201111561020157600080fd5b8035906020019184600183028401116401000000008311171561022357600080fd5b91908080601f016020809104026020016040519081016040528093929190818152602001838380828437600081840152601f19601f8201169050808301925050505050505091929192908035906020019064010000000081111561028657600080fd5b82018360208201111561029857600080fd5b803590602001918460018302840111640100000000831117156102ba57600080fd5b91908080601f016020809104026020016040519081016040528093929190818152602001838380828437600081840152601f19601f820116905080830192505050505050509192919290505050611082565b005b6103166114a8565b6040518082815260200191505060405180910390f35b61036e6004803603602081101561034257600080fd5b81019080803573ffffffffffffffffffffffffffffffffffffffff1690602001909291905050506114b5565b60405180806020018060200188815260200180602001878152602001806020018673ffffffffffffffffffffffffffffffffffffffff16815260200185810385528c818151815260200191508051906020019080838360005b838110156103e25780820151818401526020810190506103c7565b50505050905090810190601f16801561040f5780820380516001836020036101000a031916815260200191505b5085810384528b818151815260200191508051906020019080838360005b8381101561044857808201518184015260208101905061042d565b50505050905090810190601f1680156104755780820380516001836020036101000a031916815260200191505b50858103835289818151815260200191508051906020019080838360005b838110156104ae578082015181840152602081019050610493565b50505050905090810190601f1680156104db5780820380516001836020036101000a031916815260200191505b50858103825287818151815260200191508051906020019080838360005b838110156105145780820151818401526020810190506104f9565b50505050905090810190601f1680156105415780820380516001836020036101000a031916815260200191505b509b50505050505050505050505060405180910390f35b6105846004803603602081101561056e57600080fd5b810190808035906020019092919050505061193c565b604051808273ffffffffffffffffffffffffffffffffffffffff16815260200191505060405180910390f35b6105dc600480360360208110156105c657600080fd5b8101908080359060200190929190505050611978565b604051808273ffffffffffffffffffffffffffffffffffffffff16815260200191505060405180910390f35b6106106119b4565b604051808273ffffffffffffffffffffffffffffffffffffffff16815260200191505060405180910390f35b6106886004803603604081101561065257600080fd5b81019080803573ffffffffffffffffffffffffffffffffffffffff169060200190929190803590602001909291905050506119da565b005b6106b6600480360360208110156106a057600080fd5b8101908080359060200190929190505050611bff565b604051808273ffffffffffffffffffffffffffffffffffffffff16815260200191505060405180910390f35b610724600480360360208110156106f857600080fd5b81019080803573ffffffffffffffffffffffffffffffffffffffff169060200190929190505050611c3b565b604051808881526020018060200180602001806020018781526020018673ffffffffffffffffffffffffffffffffffffffff1681526020018060200185810385528b818151815260200191508051906020019080838360005b8381101561079857808201518184015260208101905061077d565b50505050905090810190601f1680156107c55780820380516001836020036101000a031916815260200191505b5085810384528a818151815260200191508051906020019080838360005b838110156107fe5780820151818401526020810190506107e3565b50505050905090810190601f16801561082b5780820380516001836020036101000a031916815260200191505b50858103835289818151815260200191508051906020019080838360005b83811015610864578082015181840152602081019050610849565b50505050905090810190601f1680156108915780820380516001836020036101000a031916815260200191505b50858103825286818151815260200191508051906020019080838360005b838110156108ca5780820151818401526020810190506108af565b50505050905090810190601f1680156108f75780820380516001836020036101000a031916815260200191505b509b50505050505050505050505060405180910390f35b610916611efd565b6040518080602001828103825283818151815260200191508051906020019060200280838360005b8381101561095957808201518184015260208101905061093e565b505050509050019250505060405180910390f35b6109af6004803603602081101561098357600080fd5b81019080803573ffffffffffffffffffffffffffffffffffffffff169060200190929190505050611f8b565b6040518088815260200180602001806020018773ffffffffffffffffffffffffffffffffffffffff16815260200180602001868152602001851515815260200184810384528a818151815260200191508051906020019080838360005b83811015610a27578082015181840152602081019050610a0c565b50505050905090810190601f168015610a545780820380516001836020036101000a031916815260200191505b50848103835289818151815260200191508051906020019080838360005b83811015610a8d578082015181840152602081019050610a72565b50505050905090810190601f168015610aba5780820380516001836020036101000a031916815260200191505b50848103825287818151815260200191508051906020019080838360005b83811015610af3578082015181840152602081019050610ad8565b50505050905090810190601f168015610b205780820380516001836020036101000a031916815260200191505b509a505050505050505050505060405180910390f35b610b3e612383565b6040518082815260200191505060405180910390f35b610b9660048036036020811015610b6a57600080fd5b81019080803573ffffffffffffffffffffffffffffffffffffffff169060200190929190505050612390565b6040518089815260200180602001806020018873ffffffffffffffffffffffffffffffffffffffff16815260200187815260200186151581526020018581526020018060200184810384528b818151815260200191508051906020019080838360005b83811015610c14578082015181840152602081019050610bf9565b50505050905090810190601f168015610c415780820380516001836020036101000a031916815260200191505b5084810383528a818151815260200191508051906020019080838360005b83811015610c7a578082015181840152602081019050610c5f565b50505050905090810190601f168015610ca75780820380516001836020036101000a031916815260200191505b50848103825285818151815260200191508051906020019080838360005b83811015610ce0578082015181840152602081019050610cc5565b50505050905090810190601f168015610d0d5780820380516001836020036101000a031916815260200191505b509b50505050505050505050505060405180910390f35b610d2c6125cd565b6040518080602001828103825283818151815260200191508051906020019060200280838360005b83811015610d6f578082015181840152602081019050610d54565b505050509050019250505060405180910390f35b610d8b61265b565b6040518080602001828103825283818151815260200191508051906020019060200280838360005b83811015610dce578082015181840152602081019050610db3565b505050509050019250505060405180910390f35b611080600480360360a0811015610df857600080fd5b81019080803573ffffffffffffffffffffffffffffffffffffffff16906020019092919080359060200190640100000000811115610e3557600080fd5b820183602082011115610e4757600080fd5b80359060200191846001830284011164010000000083111715610e6957600080fd5b91908080601f016020809104026020016040519081016040528093929190818152602001838380828437600081840152601f19601f82011690508083019250505050505050919291929080359060200190640100000000811115610ecc57600080fd5b820183602082011115610ede57600080fd5b80359060200191846001830284011164010000000083111715610f0057600080fd5b91908080601f016020809104026020016040519081016040528093929190818152602001838380828437600081840152601f19601f82011690508083019250505050505050919291929080359060200190640100000000811115610f6357600080fd5b820183602082011115610f7557600080fd5b80359060200191846001830284011164010000000083111715610f9757600080fd5b91908080601f016020809104026020016040519081016040528093929190818152602001838380828437600081840152601f19601f82011690508083019250505050505050919291929080359060200190640100000000811115610ffa57600080fd5b82018360208201111561100c57600080fd5b8035906020019184600183028401116401000000008311171561102e57600080fd5b91908080601f016020809104026020016040519081016040528093929190818152602001838380828437600081840152601f19601f8201169050808301925050505050505091929192905050506126e9565b005b3373ffffffffffffffffffffffffffffffffffffffff16600260009054906101000a900473ffffffffffffffffffffffffffffffffffffffff1673ffffffffffffffffffffffffffffffffffffffff1614611145576040517f08c379a000000000000000000000000000000000000000000000000000000000815260040180806020018281038252601f8152602001807f4f6e6c79206f7267616e697a65722063616e2063726561746520766f7465720081525060200191505060405180910390fd5b600061114f612b12565b90506000600760008773ffffffffffffffffffffffffffffffffffffffff1673ffffffffffffffffffffffffffffffffffffffff168152602001908152602001600020905060008160040154146111a557600080fd5b60018160040181905550848160010190805190602001906111c7929190612b46565b50838160020190805190602001906111e0929190612b46565b50858160030160006101000a81548173ffffffffffffffffffffffffffffffffffffffff021916908373ffffffffffffffffffffffffffffffffffffffff1602179055508181600001819055506103e8816006018190555060008160050160006101000a81548160ff0219169083151502179055508281600701908051906020019061126d929190612b46565b506006869080600181540180825580915050600190039060005260206000200160009091909190916101000a81548173ffffffffffffffffffffffffffffffffffffffff021916908373ffffffffffffffffffffffffffffffffffffffff1602179055507ff5f39971dd62d9929e3a9feaa6bb77fe7c7da0001babff8a65a7e51ad0201c198286868985600401548660050160009054906101000a900460ff1687600601548a6040518089815260200180602001806020018873ffffffffffffffffffffffffffffffffffffffff16815260200187815260200186151581526020018581526020018060200184810384528b818151815260200191508051906020019080838360005b83811015611391578082015181840152602081019050611376565b50505050905090810190601f1680156113be5780820380516001836020036101000a031916815260200191505b5084810383528a818151815260200191508051906020019080838360005b838110156113f75780820151818401526020810190506113dc565b50505050905090810190601f1680156114245780820380516001836020036101000a031916815260200191505b50848103825285818151815260200191508051906020019080838360005b8381101561145d578082015181840152602081019050611442565b50505050905090810190601f16801561148a5780820380516001836020036101000a031916815260200191505b509b50505050505050505050505060405180910390a1505050505050565b6000600680549050905090565b60608060006060600060606000600460008973ffffffffffffffffffffffffffffffffffffffff1673ffffffffffffffffffffffffffffffffffffffff168152602001908152602001600020600101600460008a73ffffffffffffffffffffffffffffffffffffffff1673ffffffffffffffffffffffffffffffffffffffff168152602001908152602001600020600201600460008b73ffffffffffffffffffffffffffffffffffffffff1673ffffffffffffffffffffffffffffffffffffffff16815260200190815260200160002060000154600460008c73ffffffffffffffffffffffffffffffffffffffff1673ffffffffffffffffffffffffffffffffffffffff168152602001908152602001600020600301600460008d73ffffffffffffffffffffffffffffffffffffffff1673ffffffffffffffffffffffffffffffffffffffff16815260200190815260200160002060040154600460008e73ffffffffffffffffffffffffffffffffffffffff1673ffffffffffffffffffffffffffffffffffffffff168152602001908152602001600020600601600460008f73ffffffffffffffffffffffffffffffffffffffff1673ffffffffffffffffffffffffffffffffffffffff16815260200190815260200160002060050160009054906101000a900473ffffffffffffffffffffffffffffffffffffffff16868054600181600116156101000203166002900480601f0160208091040260200160405190810160405280929190818152602001828054600181600116156101000203166002900480156117485780601f1061171d57610100808354040283529160200191611748565b820191906000526020600020905b81548152906001019060200180831161172b57829003601f168201915b50505050509650858054600181600116156101000203166002900480601f0160208091040260200160405190810160405280929190818152602001828054600181600116156101000203166002900480156117e45780601f106117b9576101008083540402835291602001916117e4565b820191906000526020600020905b8154815290600101906020018083116117c757829003601f168201915b50505050509550838054600181600116156101000203166002900480601f0160208091040260200160405190810160405280929190818152602001828054600181600116156101000203166002900480156118805780601f1061185557610100808354040283529160200191611880565b820191906000526020600020905b81548152906001019060200180831161186357829003601f168201915b50505050509350818054600181600116156101000203166002900480601f01602080910402602001604051908101604052809291908181526020018280546001816001161561010002031660029004801561191c5780601f106118f15761010080835404028352916020019161191c565b820191906000526020600020905b8154815290600101906020018083116118ff57829003601f168201915b505050505091509650965096509650965096509650919395979092949650565b6003818154811061194957fe5b906000526020600020016000915054906101000a900473ffffffffffffffffffffffffffffffffffffffff1681565b6006818154811061198557fe5b906000526020600020016000915054906101000a900473ffffffffffffffffffffffffffffffffffffffff1681565b600260009054906101000a900473ffffffffffffffffffffffffffffffffffffffff1681565b6000600760003373ffffffffffffffffffffffffffffffffffffffff1673ffffffffffffffffffffffffffffffffffffffff16815260200190815260200160002090508060050160009054906101000a900460ff1615611aa2576040517f08c379a00000000000000000000000000000000000000000000000000000000081526004018080602001828103825260168152602001807f596f75206861766520616c726561647920766f7465640000000000000000000081525060200191505060405180910390fd5b600081600401541415611b1d576040517f08c379a00000000000000000000000000000000000000000000000000000000081526004018080602001828103825260198152602001807f596f752068617665206e6f20726967687420746f20766f74650000000000000081525060200191505060405180910390fd5b60018160050160006101000a81548160ff0219169083151502179055508181600601819055506005339080600181540180825580915050600190039060005260206000200160009091909190916101000a81548173ffffffffffffffffffffffffffffffffffffffff021916908373ffffffffffffffffffffffffffffffffffffffff1602179055508060040154600460008573ffffffffffffffffffffffffffffffffffffffff1673ffffffffffffffffffffffffffffffffffffffff16815260200190815260200160002060040160008282540192505081905550505050565b60058181548110611c0c57fe5b906000526020600020016000915054906101000a900473ffffffffffffffffffffffffffffffffffffffff1681565b6004602052806000526040600020600091509050806000015490806001018054600181600116156101000203166002900480601f016020809104026020016040519081016040528092919081815260200182805460018160011615610100020316600290048015611ced5780601f10611cc257610100808354040283529160200191611ced565b820191906000526020600020905b815481529060010190602001808311611cd057829003601f168201915b505050505090806002018054600181600116156101000203166002900480601f016020809104026020016040519081016040528092919081815260200182805460018160011615610100020316600290048015611d8b5780601f10611d6057610100808354040283529160200191611d8b565b820191906000526020600020905b815481529060010190602001808311611d6e57829003601f168201915b505050505090806003018054600181600116156101000203166002900480601f016020809104026020016040519081016040528092919081815260200182805460018160011615610100020316600290048015611e295780601f10611dfe57610100808354040283529160200191611e29565b820191906000526020600020905b815481529060010190602001808311611e0c57829003601f168201915b5050505050908060040154908060050160009054906101000a900473ffffffffffffffffffffffffffffffffffffffff1690806006018054600181600116156101000203166002900480601f016020809104026020016040519081016040528092919081815260200182805460018160011615610100020316600290048015611ef35780601f10611ec857610100808354040283529160200191611ef3565b820191906000526020600020905b815481529060010190602001808311611ed657829003601f168201915b5050505050905087565b60606005805480602002602001604051908101604052809291908181526020018280548015611f8157602002820191906000526020600020905b8160009054906101000a900473ffffffffffffffffffffffffffffffffffffffff1673ffffffffffffffffffffffffffffffffffffffff1681526020019060010190808311611f37575b5050505050905090565b600060608060006060600080600760008973ffffffffffffffffffffffffffffffffffffffff1673ffffffffffffffffffffffffffffffffffffffff16815260200190815260200160002060000154600760008a73ffffffffffffffffffffffffffffffffffffffff1673ffffffffffffffffffffffffffffffffffffffff168152602001908152602001600020600101600760008b73ffffffffffffffffffffffffffffffffffffffff1673ffffffffffffffffffffffffffffffffffffffff168152602001908152602001600020600201600760008c73ffffffffffffffffffffffffffffffffffffffff1673ffffffffffffffffffffffffffffffffffffffff16815260200190815260200160002060030160009054906101000a900473ffffffffffffffffffffffffffffffffffffffff16600760008d73ffffffffffffffffffffffffffffffffffffffff1673ffffffffffffffffffffffffffffffffffffffff168152602001908152602001600020600701600760008e73ffffffffffffffffffffffffffffffffffffffff1673ffffffffffffffffffffffffffffffffffffffff16815260200190815260200160002060040154600760008f73ffffffffffffffffffffffffffffffffffffffff1673ffffffffffffffffffffffffffffffffffffffff16815260200190815260200160002060050160009054906101000a900460ff16858054600181600116156101000203166002900480601f01602080910402602001604051908101604052809291908181526020018280546001816001161561010002031660029004801561222b5780601f106122005761010080835404028352916020019161222b565b820191906000526020600020905b81548152906001019060200180831161220e57829003601f168201915b50505050509550848054600181600116156101000203166002900480601f0160208091040260200160405190810160405280929190818152602001828054600181600116156101000203166002900480156122c75780601f1061229c576101008083540402835291602001916122c7565b820191906000526020600020905b8154815290600101906020018083116122aa57829003601f168201915b50505050509450828054600181600116156101000203166002900480601f0160208091040260200160405190810160405280929190818152602001828054600181600116156101000203166002900480156123635780601f1061233857610100808354040283529160200191612363565b820191906000526020600020905b81548152906001019060200180831161234657829003601f168201915b505050505092509650965096509650965096509650919395979092949650565b6000600380549050905090565b6007602052806000526040600020600091509050806000015490806001018054600181600116156101000203166002900480601f0160208091040260200160405190810160405280929190818152602001828054600181600116156101000203166002900480156124425780601f1061241757610100808354040283529160200191612442565b820191906000526020600020905b81548152906001019060200180831161242557829003601f168201915b505050505090806002018054600181600116156101000203166002900480601f0160208091040260200160405190810160405280929190818152602001828054600181600116156101000203166002900480156124e05780601f106124b5576101008083540402835291602001916124e0565b820191906000526020600020905b8154815290600101906020018083116124c357829003601f168201915b5050505050908060030160009054906101000a900473ffffffffffffffffffffffffffffffffffffffff16908060040154908060050160009054906101000a900460ff1690806006015490806007018054600181600116156101000203166002900480601f0160208091040260200160405190810160405280929190818152602001828054600181600116156101000203166002900480156125c35780601f10612598576101008083540402835291602001916125c3565b820191906000526020600020905b8154815290600101906020018083116125a657829003601f168201915b5050505050905088565b6060600380548060200260200160405190810160405280929190818152602001828054801561265157602002820191906000526020600020905b8160009054906101000a900473ffffffffffffffffffffffffffffffffffffffff1673ffffffffffffffffffffffffffffffffffffffff1681526020019060010190808311612607575b5050505050905090565b606060068054806020026020016040519081016040528092919081815260200182805480156126df57602002820191906000526020600020905b8160009054906101000a900473ffffffffffffffffffffffffffffffffffffffff1673ffffffffffffffffffffffffffffffffffffffff1681526020019060010190808311612695575b5050505050905090565b3373ffffffffffffffffffffffffffffffffffffffff16600260009054906101000a900473ffffffffffffffffffffffffffffffffffffffff1673ffffffffffffffffffffffffffffffffffffffff161461278f576040517f08c379a0000000000000000000000000000000000000000000000000000000008152600401808060200182810382526024815260200180612be46024913960400191505060405180910390fd5b6000612799612b2c565b90506000600460008873ffffffffffffffffffffffffffffffffffffffff1673ffffffffffffffffffffffffffffffffffffffff1681526020019081526020016000209050858160010190805190602001906127f6929190612b46565b508481600201908051906020019061280f929190612b46565b5081816000018190555083816003019080519060200190612831929190612b46565b5060008160040181905550868160050160006101000a81548173ffffffffffffffffffffffffffffffffffffffff021916908373ffffffffffffffffffffffffffffffffffffffff16021790555082816006019080519060200190612897929190612b46565b506003879080600181540180825580915050600190039060005260206000200160009091909190916101000a81548173ffffffffffffffffffffffffffffffffffffffff021916908373ffffffffffffffffffffffffffffffffffffffff160217905550817fd297f12b256bb8485a6013fb5e302017018123e99a0ebb20756c09e1707b4b9087878785600401548c89604051808060200180602001806020018781526020018673ffffffffffffffffffffffffffffffffffffffff1681526020018060200185810385528b818151815260200191508051906020019080838360005b8381101561299557808201518184015260208101905061297a565b50505050905090810190601f1680156129c25780820380516001836020036101000a031916815260200191505b5085810384528a818151815260200191508051906020019080838360005b838110156129fb5780820151818401526020810190506129e0565b50505050905090810190601f168015612a285780820380516001836020036101000a031916815260200191505b50858103835289818151815260200191508051906020019080838360005b83811015612a61578082015181840152602081019050612a46565b50505050905090810190601f168015612a8e5780820380516001836020036101000a031916815260200191505b50858103825286818151815260200191508051906020019080838360005b83811015612ac7578082015181840152602081019050612aac565b50505050905090810190601f168015612af45780820380516001836020036101000a031916815260200191505b509a505050505050505050505060405180910390a250505050505050565b600060016000808282540192505081905550600054905090565b600060018060008282540192505081905550600154905090565b828054600181600116156101000203166002900490600052602060002090601f016020900481019282601f10612b8757805160ff1916838001178555612bb5565b82800160010185558215612bb5579182015b82811115612bb4578251825591602001919060010190612b99565b5b509050612bc29190612bc6565b5090565b5b80821115612bdf576000816000905550600101612bc7565b509056fe4f6e6c79204f7267616e697a65722063616e20616464207468652063616e646964617465a2646970667358221220e230f57ea44914c477ebe5469c0fe475c660ec8e52e52034bad2286f171f689664736f6c63430007030033",
  "linkReferences": {},
  "deployedLinkReferences": {}
}